:1000000065C0000075C0000073C000009DC3000003
:100010006FC000006DC000006BC0000069C0000030
:1000200067C0000065C0000063C0000061C0000040
:100030005FC000005DC000005BC0000059C0000050
:1000400057C0000055C0000053C0000051C0000060
:100050004FC000004DC000004BC0000049C0000070
:1000600047C0000036C1000043C0000041C000008E
:100070003FC000003DC000003BC0000039C0000090
:1000800037C0000035C0000033C0000031C00000A0
:100090002FC000002DC000002BC0000029C00000B0
:1000A00027C0000025C0000023C0000021C00000C0
:1000B0001FC0000060C300001BC0000019C000008A
:1000C00017C0000015C0000014C0000011241FBE9E
:1000D000CFEFD1E2DEBFCDBF00E00CBF22E0A0E059
:1000E000B2E001C01D92AE33B207E1F748D460C65A
:1000F00087CF1F920F920FB60F9211240BB60F925B
:100100002F933F934F935F936F937F938F939F931F
:10011000AF93BF93EF93FF9340E062E081E291E001
:10012000A1D210922402B4D1FF91EF91BF91AF916F
:100130009F918F917F916F915F914F913F912F91FF
:100140000F900BBE0F900FBE0F901F901895CF937E
:10015000DF93F894882399F0ADE2B2E08150282F24
:1001600030E0225D3D4FE0ECF0E0C6ECD0E0808175
:1001700085FFFDCF8D918883A217B307C1F77894CF
:10018000DF91CF910895882339F090E0282F2170D6
:10019000920F8695D9F701C090E0892F0895AF920C
:1001A000BF92CF92DF92EF92FF920F931F93CF9364
:1001B000DF937C01C62ED12C5C01AC0CBD1CE6018A
:1001C0002396C80FD91F10E0F50181915F01DBDF95
:1001D000180FCA15DB05C1F71F70F6E0CF0ED11C52
:1001E000EC0CFD1C00E08991CEDF080FEC16FD063B
:1001F000D1F7802F8295807F812BDF91CF911F9146
:100200000F91FF90EF90DF90CF90BF90AF90089547
:10021000CF93DF9327E037E830933C0220933B02F3
:1002200080E094EEA0E4B6E480931C0290931D025B
:10023000A0931E02B0931F0281E08093010240E070
:1002400050E467EB76E440932002509321026093E0
:10025000220270932302CDE2D2E0909107029883AC
:100260003A83298340E054EE60E476E44B835C8378
:100270006D837E838F8380E090E4A7EBB6E488876C
:100280009987AA87BB8760E0CE0189DF8C8766E00B
:10029000CE0185DF8D8710923D02DF91CF910895C9
:1002A000CF9360E081E192E07ADFC82F63E081E1E3
:1002B00092E075DF282F90911A02C91307C081E0E0
:1002C00090911B02921719F080E001C080E0CF915D
:1002D00008951F920F920FB60F9211240BB60F9232
:1002E0002F933F934F935F936F937F938F939F933E
:1002F000AF93BF93EF93FF939091C60081E08093FB
:10030000060280912702811144C0933559F48091EF
:100310002402882309F4A9C08BE480932D0281E094
:1003200016DFA3C0923761F480912402882309F478
:100330009CC073D18BE480932D0281E008DF95C0CF
:10034000943749F480912402882309F48EC081E017
:10035000809327028AC09E34A9F4809124028823C6
:1003600009F483C082E0809327028EE48093110217
:1003700081E080932C028CED9BE09093250180938B
:10038000240173C0913409F070C083E08093270288
:100390006CC0813051F4909300028BE480932D0265
:1003A00081E0D5DE1092270260C08230D1F48091C6
:1003B0002C028B3028F4E82FF0E0EF5EFD4F9083A5
:1003C0008F5F8B3019F080932C024FC010922C025B
:1003D0001092270265DF811148C08BE080930702ED
:1003E00044C0833009F041C080912C028F5F80931C
:1003F0002C02823069F08330A1F08130B1F5933462
:10040000A1F1109227021092240210922C022DC00A
:10041000953459F1109227021092240210922C0266
:1004200024C09335E1F481E08093240286E0809338
:100430000702EDE2F2E084E4808381E481838CE4CE
:10044000828385E4838384E082DE88E996E7909363
:10045000A5008093A40084E08093210102C0109243
:1004600024021092270210922C02FF91EF91BF916B
:10047000AF919F918F917F916F915F914F913F913C
:100480002F910F900BBE0F900FBE0F901F901895DD
:1004900015BC14BC40E067E085E290E0E3D0109228
:1004A000B1001092B00040E064E085E290E0DAD064
:1004B000109291001092900040E064E085E290E09C
:1004C000D1D0109221011092200140E065E085E238
:1004D00090E0C8D040E066E085E290E0C3D081E0E3
:1004E00080930C0284E0809307020895CF92DF92FC
:1004F000EF92FF9282ED8093B300E1EBF0E0808118
:100500008560808381E0809301028FE787BD85B598
:10051000856085BD60913B0270913C02CB018D519D
:100520009542873E934008F43AC06051774280E09C
:1005300090E025D322E539E44DE15AEBD6D36B01A7
:100540007C0120E030E040EC50E4CBD3181664F09E
:1005500020E030E0A901C701B60179D2882364F414
:10056000C12CD12C760108C00F2EC12CD12CF0EC5F
:10057000EF2EF0E4FF2EF02D26E636E64EE151E4B4
:10058000C701B60168D220E030E84FE753E4ADD3AD
:10059000CAD2862F809587BD10923D02FFCFFF9073
:1005A000EF90DF90CF900895E6E9F0E0C081D1812F
:1005B0006081718180E090E0E2D29B01AC01E3D1E7
:1005C00026E636E64EE151E446D2ADD2C61BD70B45
:1005D000D0939B00C0939A00E1E9F0E080818260B3
:1005E0008083E6E8F0E0C081D1816081718180E0A4
:1005F00090E0C5D220E030E0A90177D394D2C61BA9
:10060000D70BD0938B00C0938A00E1EAF0E08081A1
:100610008460808310923D02FFCF80910C0288237A
:10062000C9F080913B0290913C020A97D0F420E0FF
:1006300030E048E452E460911C0270911D02809108
:100640001E0290911F0203D288235CF410920C02C8
:10065000E4CF0895E9D04ADF80910702813009F0A4
:10066000A3CF0895442359F050E002C0440F551F12
:100670006A95E2F7FC012081422B40830895FC013A
:10068000408121E030E002C0220F331F6A95E2F77B
:100690002095242320830895F8941EBC0DB407FEF2
:1006A000FDCF78948EB50895FC01918192FF09C029
:1006B00010921C0210921D0210921E0210921F0234
:1006C0000895608180E2689FB00111249695969507
:1006D0009695692B6115710511F461E070E0072EA4
:1006E000000C880B990B4DD220E030EF4FE755E41A
:1006F000B2D120E030EF4FE754E4F7D260931C0210
:1007000070931D0280931E0290931F02109220028C
:100710001092210210922202109223020895CF9388
:10072000DF931F921F92CDB7DEB72898B5DF89837C
:10073000B3DF8A83289ACE010196B6DF69DD0F9078
:100740000F90DF91CF9108951F920F920FB60F92E5
:1007500011248F939F9380912502909126020196F8
:1007600090932602809325029F918F910F900FBE48
:100770000F901F9018951F920F920FB60F92112491
:100780000BB60F922F933F934F935F936F937F938B
:100790008F939F93AF93BF93EF93FF932091250285
:1007A0003091260248E7429FC001439F900D1124DB
:1007B00090933C0280933B02B2DF80913B02909188
:1007C0003C02893E9D4F78F420E030E04FE254E453
:1007D00060911C0270911D0280911E0290911F0277
:1007E00080D218160CF454DE81E080933D02109202
:1007F00026021092250288EC9AE09093A50080933F
:10080000A400FF91EF91BF91AF919F918F917F9144
:100810006F915F914F913F912F910F900BBE0F9071
:100820000FBE0F901F901895E0E9F0E08081826084
:100830008083A1E9B0E08C9188618C938081806392
:10084000808380E49CE99093970080939600E0E891
:10085000F0E0808182608083A1E8B0E08C918861C3
:100860008C9380818063808382E19AE790938700F4
:100870008093860084B5836C84BD85B5886085BD12
:100880008EE787BDE0EBF0E08081836C8083E1EB55
:10089000F0E080818860808381ED8093B3000895CB
:1008A00025E026BD25B5236025BD009751F020E049
:1008B00030E0A89BFECFA89A2F5F3F4F8217930787
:1008C000C1F785B58D7F85BD85B58E7F85BD0895C2
:1008D00084B1806B84B96C9A87E084B981E58CBD62
:1008E00040E062E08AE290E0BDDE109226021092C3
:1008F000250280E3809369008CE090E09093C5002E
:100900008093C40088E98093C10086E08093C20090
:100910008CED9BE0909325018093240181E08093EE
:10092000730028EC3AE03093A5002093A400809354
:10093000720083EC90E0B4DF83E08093A1008CE947
:1009400095EAA1EEB1E48093180290931902A09366
:100950001A02B0931B028FEE9BE3AEE5BCE38093DB
:10096000280290932902A0932A02B0932B02789434
:10097000109206021092270210922C020895A8DF0E
:10098000CEDEFECF5058BB27AA270ED070C161D152
:1009900030F066D120F031F49F3F11F41EF456C1BF
:1009A0000EF4E095E7FB4CC1E92F72D180F3BA1742
:1009B000620773078407950718F071F49EF58AC1E2
:1009C0000EF4E0950B2EBA2FA02D0B01B90190016A
:1009D0000C01CA01A0011124FF27591B99F0593FAE
:1009E00050F4503E68F11A16F040A22F232F342FF6
:1009F0004427585FF3CF469537952795A795F04044
:100A00005395C9F77EF41F16BA0B620B730B840B58
:100A1000BAF09150A1F0FF0FBB1F661F771F881F10
:100A2000C2F70EC0BA0F621F731F841F48F4879568
:100A300077956795B795F7959E3F08F0B3CF939557
:100A4000880F08F09927EE0F979587950895D4D0D1
:100A500008F481E008950CD00AC102D140F0F9D029
:100A600030F021F45F3F19F0EBC0511134C1EEC0FA
:100A70000FD198F39923C9F35523B1F3951B550B67
:100A8000BB27AA2762177307840738F09F5F5F4F61
:100A9000220F331F441FAA1FA9F333D00E2E3AF0A2
:100AA000E0E830D091505040E695001CCAF729D0BC
:100AB000FE2F27D0660F771F881FBB1F261737070B
:100AC0004807AB07B0E809F0BB0B802DBF01FF273B
:100AD00093585F4F2AF09E3F510568F0B1C0FBC0AC
:100AE0005F3FECF3983EDCF3869577956795B79575
:100AF000F7959F5FC9F7880F911D9695879597F990
:100B00000895E1E0660F771F881FBB1F6217730708
:100B10008407BA0720F0621B730B840BBA0BEE1F1D
:100B200088F7E0950895BCD088F09F5790F0B92FD2
:100B30009927B751A0F0D1F0660F771F881F991F32
:100B40001AF0BA95C9F712C0B13081F0C3D0B1E044
:100B50000895C0C0672F782F8827B85F39F0B93F54
:100B6000CCF3869577956795B395D9F73EF4909534
:100B70008095709561957F4F8F4F9F4F0895E894B2
:100B800009C097FB3EF490958095709561957F4FD5
:100B90008F4F9F4F9923A9F0F92F96E9BB27939583
:100BA000F695879577956795B795F111F8CFFAF493
:100BB000BB0F11F460FF1BC06F5F7F4F8F4F9F4FC4
:100BC00016C0882311F096E911C0772321F09EE822
:100BD000872F762F05C0662371F096E8862F70E088
:100BE00060E02AF09A95660F771F881FDAF7880F62
:100BF0009695879597F90895990F0008550FAA0BB8
:100C0000E0E8FEEF16161706E807F907C0F012161F
:100C10001306E407F50798F0621B730B840B950B22
:100C200039F40A2661F0232B242B252B21F4089577
:100C30000A2609F4A140A6958FEF811D811D089514
:100C400097F99F6780E870E060E008959FEF80EC7F
:100C5000089500240A941616170618060906089522
:100C600000240A9412161306140605060895092E88
:100C70000394000C11F4882352F0BB0F40F4BF2BF7
:100C800011F460FF04C06F5F7F4F8F4F9F4F089537
:100C900057FD9058440F551F59F05F3F71F047952D
:100CA000880F97FB991F61F09F3F79F08795089512
:100CB000121613061406551FF2CF4695F1DF08C031
:100CC000161617061806991FF1CF8695710561054E
:100CD00008940895E894BB2766277727CB0197F9F6
:100CE00008958ADF08F48FEF08950BD0C0CFB1DFED
:100CF00028F0B6DF18F0952309F0A2CFA7CF112472
:100D0000EACFC6DFA0F3959FD1F3950F50E0551FB2
:100D1000629FF001729FBB27F00DB11D639FAA2750
:100D2000F00DB11DAA1F649F6627B00DA11D661F9F
:100D3000829F2227B00DA11D621F739FB00DA11DC0
:100D4000621F839FA00D611D221F749F3327A00D7A
:100D5000611D231F849F600D211D822F762F6A2F16
:100D600011249F5750408AF0E1F088234AF0EE0F9B
:100D7000FF1FBB1F661F771F881F91505040A9F7A8
:100D80009E3F510570F05CCFA6CF5F3FECF3983EDD
:100D9000DCF3869577956795B795F795E7959F5F0F
:100DA000C1F7FE2B880F911D9695879597F90895A9
:040DB000F894FFCFE5
:00000001FF
