S0100000414345535F4553422E73726563BF
S113000065C0000075C0000073C00000CAC20000D3
S11300106FC000006DC000006BC0000069C000002C
S113002067C0000065C0000063C0000061C000003C
S11300305FC000005DC000005BC0000059C000004C
S113004057C0000055C0000053C0000051C000005C
S11300504FC000004DC000004BC0000049C000006C
S113006047C000008DC0000043C0000041C0000034
S11300703FC000003DC000003BC0000039C000008C
S113008037C0000035C0000033C0000031C000009C
S11300902FC000002DC000002BC0000029C00000AC
S11300A027C0000025C0000023C0000021C00000BC
S11300B01FC000008DC200001BC0000019C000005A
S11300C017C0000015C0000014C0000011241FBE9A
S11300D0CFEFD1E2DEBFCDBF00E00CBF22E0A0E055
S11300E0B2E001C01D92A534B207E1F726D38DC357
S11300F087CF1F920F920FB60F9211240BB60F9257
S11301002F933F934F935F936F937F938F939F931B
S1130110AF93BF93EF93FF9340E062E081E291E0FD
S1130120ADD1FF91EF91BF91AF919F918F917F914D
S11301306F915F914F913F912F910F900BBE0F9054
S11301400FBE0F901F901895CF93DF93F8948823D8
S113015099F0A4E3B2E08150282F30E02B5C3D4FAE
S1130160E0ECF0E0C6ECD0E0808185FFFDCF8D911E
S11301708883A217B307C1F77894DF91CF910895CC
S11301801F920F920FB60F9211240BB60F922F935A
S11301903F934F935F936F937F938F939F93AF930B
S11301A0BF93EF93FF939091C60081E0809309027F
S11301B080912B0281113EC0933559F4809127021E
S11301C0882309F49EC08BE48093340281E0BCDF71
S11301D098C0923761F480912702882309F491C072
S11301E030D18BE48093340281E0AEDF8AC094374F
S11301F049F480912702882309F483C081E0809325
S11302002B027FC09E3479F480912702882309F45D
S113021078C082E080932B028CED9BE090932501C3
S1130220809324016EC0913409F06BC083E0809305
S11302302B0267C0813051F4909300028BE48093C9
S1130240340281E081DF10922B025BC0823001F521
S1130250809133028F5F80933302823061F018F40F
S1130260813031F04EC0833049F0843051F049C0C0
S11302709093100246C09093110243C090931202CF
S113028040C0909313021092330210922B0239C093
S11302908330B9F5809133028F5F809333028230CB
S11302A059F0833081F0813061F5933451F110922B
S11302B02B021092330225C0953419F110922B02AF
S11302C0109233021EC09335C1F481E0809327025B
S11302D0E4E3F2E084E4808381E481838CE4828338
S11302E085E4838384E030DF88E996E79093A50072
S11302F08093A40084E08093210110922B02109239
S11303003302FF91EF91BF91AF919F918F917F91B4
S11303106F915F914F913F912F910F900BBE0F9072
S11303200FBE0F901F901895882339F090E0282F66
S11303302170920F8695D9F701C090E0892F089516
S1130340AF92BF92CF92DF92EF92FF920F931F93DF
S1130350CF93DF937C01C62ED12C5C01AC0CBD1C69
S1130360E6012396C80FD91F10E0F50181915F01C2
S1130370DBDF180FCA15DB05C1F71F70F6E0CF0EDF
S1130380D11CEC0CFD1C00E08991CEDF080FEC16AB
S1130390FD06D1F7802F8295807F812BDF91CF914D
S11303A01F910F91FF90EF90DF90CF90BF90AF908F
S11303B00895CF93DF9327E037E8309343022093E7
S11303C0420280E094EEA0E4B6E480931F0290938E
S11303D02002A0932102B093220281E080930102C3
S11303E040E050E467EB76E4409323025093240208
S11303F06093250270932602C4E3D2E090910A022E
S113040098833A83298340E054EE60E476E44B8396
S11304105C836D837E838F8380E090E4A7EBB6E4F6
S113042088879987AA87BB8760E0CE0189DF8C879C
S113043066E0CE0185DF8D8710924402DF91CF9173
S1130440089580910F028823C1F080914202909117
S113045043020A9790F420E030E048E452E46091CB
S11304601F0270912002809121029091220268D192
S113047088231CF410920F02E4CF0895442359F00A
S113048050E002C0440F551F6A95E2F7FC01208139
S1130490422B40830895FC01408121E030E002C0FA
S11304A0220F331F6A95E2F72095242320830895B1
S11304B0F894E0ECF0E0808185FFFDCF1092C60057
S11304C0E0ECF0E080818823ECF78091C600089589
S11304D0FC01938192FF09C010921F021092200226
S11304E01092210210922202089591FF0DC080E023
S11304F090E0A0E8BFE380931F0290932002A093B2
S11305002102B0932202089590FF0DC080E090E094
S1130510A0E0B0E480931F0290932002A0932102F4
S1130520B09322020895608170E0762F66276330CD
S1130530710514F463E070E080E090E005D160930D
S11305401F02709320028093210290932202089547
S1130550EF92FF920F931F93CF93DF9300D01F92DC
S1130560CDB7DEB773988E010F5F1F4F7E0185E014
S1130570E80EF11C9DDFF80181938F01EE15FF0554
S1130580C9F7739ACE010196A3DF13DF0F900F9082
S11305900F900F90DF91CF911F910F91FF90EF90EB
S11305A008951F920F920FB60F9211248F939F9369
S11305B080912802909129020196909329028093B8
S11305C028029F918F910F900FBE0F901F90189546
S11305D01F920F920FB60F9211242F933F934F93B4
S11305E08F939F93209128023091290248E7429FDC
S11305F0C001439F900D11249093430280934202C3
S113060081E080934402109229021092280288EC1F
S11306109AE09093A5008093A4009F918F914F91AD
S11306203F912F910F900FBE0F901F90189525E0CA
S113063026BD25B5236025BD009751F020E030E0AC
S1130640A89BFECFA89A2F5F3F4F82179307C1F74D
S113065085B58D7F85BD85B58E7F85BD08958CE07C
S11306608DB941E062E08EE290E008DF40E062E0B4
S11306708EE290E003DF41E062E08EE290E0FEDE95
S113068041E063E08EE290E0F9DE84B1806B84B9EE
S11306906C9AE4ECF0E01182108280EC8093C2004A
S11306A082E08093C00088E18093C10087E090E0FD
S11306B09183808340E062E08AE290E0DFDE109282
S11306C029021092280280E3809369008CED9BE05C
S11306D0909325018093240181E08093730028EC9A
S11306E03AE03093A5002093A4008093720083EC39
S11306F090E09DDF83E08093A1008CE995EAA1EE70
S1130700B1E480931B0290931C02A0931D02B0934A
S11307101E028FEE9BE3AEE5BCE380932C02909324
S11307202D02A0932E02B0932F0278941092090206
S113073010922B0210923302089591DF09DFFECF4D
S113074040D008F481E00895E89409C097FB3EF492
S113075090958095709561957F4F8F4F9F4F99230A
S1130760A9F0F92F96E9BB279395F6958795779588
S11307706795B795F111F8CFFAF4BB0F11F460FF48
S11307801BC06F5F7F4F8F4F9F4F16C0882311F0A0
S113079096E911C0772321F09EE8872F762F05C0B4
S11307A0662371F096E8862F70E060E02AF09A954F
S11307B0660F771F881FDAF7880F9695879597F944
S11307C00895990F0008550FAA0BE0E8FEEF1616DE
S11307D01706E807F907C0F012161306E407F50731
S11307E098F0621B730B840B950B39F40A2661F0A5
S11307F0232B242B252B21F408950A2609F4A14048
S1110800A6958FEF811D811D0895F894FFCFFA
S9030000FC
