S0100000414345535F4553422E73726563BF
S113000065C0000075C0000073C00000C9C20000D4
S11300106FC000006DC000006BC0000069C000002C
S113002067C0000065C0000063C0000061C000003C
S11300305FC000005DC000005BC0000059C000004C
S113004057C0000055C0000053C0000051C000005C
S11300504FC000004DC000004BC0000049C000006C
S113006047C00000B9C0000043C0000041C0000008
S11300703FC000003DC000003BC0000039C000008C
S113008037C0000035C0000033C0000031C000009C
S11300902FC000002DC000002BC0000029C00000AC
S11300A027C0000025C0000023C0000021C00000BC
S11300B01FC000008CC200001BC0000019C000005B
S11300C017C0000015C0000014C0000011241FBE9A
S11300D0CFEFD1E2DEBFCDBF00E00CBF22E0A0E055
S11300E0B2E001C01D92A933B207E1F730D35EC577
S11300F087CF1F920F920FB60F9211240BB60F9257
S11301002F933F934F935F936F937F938F939F931B
S1130110AF93BF93EF93FF9340E062E081E291E0FD
S113012025D2FF91EF91BF91AF919F918F917F91D4
S11301306F915F914F913F912F910F900BBE0F9054
S11301400FBE0F901F90189587E097E890933702A1
S11301508093360289E390E390931E0280931D02FC
S113016081E08093010220EA3BE530932002209352
S11301701F02EEE2F2E09EE4908390910A029183E2
S113018097E8928397E0938390E3948399E395832C
S113019086838BE5878380EA8087109238020895EE
S11301A0CF93DF93F894882399F0AEE2B2E08150C4
S11301B0282F30E0215D3D4FE0ECF0E0C6ECD0E0CC
S11301C0808185FFFDCF8D918883A217B307C1F786
S11301D07894DF91CF9108951F920F920FB60F92EA
S11301E011240BB60F922F933F934F935F936F930A
S11301F07F938F939F93AF93BF93EF93FF939091CC
S1130200C60081E0809309028091250281113EC0DD
S1130210933559F480912102882309F49EC08BE41C
S113022080932E0281E0BCDF98C0923761F4809104
S11302302102882309F491C0A3D08BE480932E0279
S113024081E0AEDF8AC0943749F48091210288238B
S113025009F483C081E0809325027FC09E3479F441
S113026080912102882309F478C082E080932502DA
S11302708CED9BE090932501809324016EC0913412
S113028009F06BC083E08093250267C0813051F48C
S1130290909300028BE480932E0281E081DF109220
S11302A025025BC0823001F580912D028F5F80931F
S11302B02D02823061F018F4813031F04EC0833069
S11302C049F0843051F049C09093100246C0909395
S11302D0110243C09093120240C0909313021092F3
S11302E02D021092250239C08330B9F580912D0278
S11302F08F5F80932D02823059F0833081F08130FA
S113030061F5933451F11092250210922D0225C00B
S1130310953419F11092250210922D021EC09335C6
S1130320C1F481E080932102EEE2F2E084E4808370
S113033081E481838CE4828385E4838384E030DFF9
S113034088E996E79093A5008093A40084E08093C5
S113035021011092250210922D02FF91EF91BF917D
S1130360AF919F918F917F916F915F914F913F9149
S11303702F910F900BBE0F900FBE0F901F901895EA
S113038080910F02882379F0809136029091370290
S11303900A9748F480911D0290911E02C2971CF4A2
S11303A010920F02EDCF08954F925F926F927F9259
S11303B08F929F92AF92BF92CF92DF92EF92FF9271
S11303C0CF93DF9300D01F92CDB7DEB760910002C8
S11303D070E080E090E0D5D220E030E04FE753E4D5
S11303E03CD22AE939E949E950E47DD36B017C0127
S11303F060930202709303028093040290930502B7
S11304008090190290901A02A0901B02B0901C02D6
S113041040901002509011026090120270901302EA
S113042084D270E080E090E0AED2A50194015BD369
S11304307CD270E080E090E0A6D269837A838B83DB
S11304409C83C501B40171D270E080E090E09BD23E
S1130450A301920148D39B01AC0169817A818B810C
S11304609C8192D162D2B62EA7019601C301B2013A
S11304708BD16B017C0120E030E0A901EAD1882313
S113048024F4F7FAF094F7F8F0942DEC3CEC4CE4F7
S11304905EE3C701B601DDD188231CF488E08093B4
S11304A00A02C0909600D0909700EAE9F0E0E0805C
S11304B0F1806B2D70E080E090E063D22091260201
S11304C03091270240912802509129020CD34B010C
S11304D05C01B60180E090E054D226E636E64EE1B7
S11304E051E4BBD19B01AC01C501B401FCD21DD2C6
S11304F0E61AF70AEAE9F0E0F182E08280910A0262
S1130500883019F084E080930A020F900F900F90C6
S11305100F90DF91CF91FF90EF90DF90CF90BF903D
S1130520AF909F908F907F906F905F904F900895C1
S113053080911D0290911E028536910564F084B568
S1130540836C84BD85B5886085BD8EE787BD85B520
S1130550856085BD089514BC15BC40E067E085E264
S113056090E004D086E080930A020895442359F071
S113057050E002C0440F551F6A95E2F7FC01208148
S1130580422B40830895FC01408121E030E002C009
S1130590220F331F6A95E2F72095242320830895C0
S11305A01F920F920FB60F9211248F939F938091F5
S11305B022029091230201969093230280932202B7
S11305C09F918F910F900FBE0F901F9018951F92BF
S11305D00F920FB60F9211242F933F934F938F9343
S11305E09F93209122023091230248E7429FC00149
S11305F0439F900D1124909337028093360281E03B
S113060080933802109223021092220288EC9AE01E
S11306109093A5008093A4009F918F914F913F9157
S11306202F910F900FBE0F901F90189525E026BDB7
S113063025B5236025BD009751F020E030E0A89B4C
S1130640FECFA89A2F5F3F4F82179307C1F785B556
S11306508D7F85BD85B58E7F85BD0895EF92FF9210
S11306600F931F93CF93DF9387E084B98CE08DB908
S113067041E063E08EE290E079DF84B1806B84B97D
S11306806C9AC2ECD0E080EC888301EC10E088E145
S1130690F80180830F2EF4ECEF2EF12CF02D87E07F
S11306A090E0F7019183808340E062E08AE290E089
S11306B05DDF109223021092220280E3809369008E
S11306C08CE090E0F7019183808388E9F8018083CE
S11306D086E088838CED9BE0909325018093240130
S11306E081E08093730028EC3AE03093A5002093D6
S11306F0A4008093720083EC90E098DF83E0809301
S1130700A1008CE995EAA1EEB1E4809319029093DB
S11307101A02A0931B02B0931C028FEE9BE3AEE57A
S1130720BCE38093260290932702A0932802B093FF
S113073029027894109209021092250210922D0237
S1130740DF91CF911F910F91FF90EF90089586DF75
S1130750809121028823E1F380910A028130C1F360
S1130760823011F40DDEF4CF833011F41DDEF0CFAE
S1130770853011F4DDDEECCF80913802882341F31B
S1130780E3DC89E00DDDE4CF5058BB27AA270ED067
S113079070C161D130F066D120F031F49F3F11F483
S11307A01EF456C10EF4E095E7FB4CC1E92F72D15B
S11307B080F3BA17620773078407950718F071F47A
S11307C09EF58AC10EF4E0950B2EBA2FA02D0B01D5
S11307D0B90190010C01CA01A0011124FF27591B82
S11307E099F0593F50F4503E68F11A16F040A22F88
S11307F0232F342F4427585FF3CF469537952795F9
S1130800A795F0405395C9F77EF41F16BA0B620BF7
S1130810730B840BBAF09150A1F0FF0FBB1F661F3E
S1130820771F881FC2F70EC0BA0F621F731F841F81
S113083048F4879577956795B795F7959E3F08F0A7
S1130840B3CF9395880F08F09927EE0F9795879566
S11308500895D4D008F481E008950CD00AC102D1DF
S113086040F0F9D030F021F45F3F19F0EBC05111A2
S113087034C1EEC00FD198F39923C9F35523B1F3D2
S1130880951B550BBB27AA2762177307840738F0FB
S11308909F5F5F4F220F331F441FAA1FA9F333D05A
S11308A00E2E3AF0E0E830D091505040E695001C0E
S11308B0CAF729D0FE2F27D0660F771F881FBB1FCA
S11308C0261737074807AB07B0E809F0BB0B802DA4
S11308D0BF01FF2793585F4F2AF09E3F510568F0F0
S11308E0B1C0FBC05F3FECF3983EDCF3869577958F
S11308F06795B795F7959F5FC9F7880F911D9695F2
S1130900879597F90895E1E0660F771F881FBB1F4D
S1130910621773078407BA0720F0621B730B840BFA
S1130920BA0BEE1F88F7E0950895BCD088F09F5766
S113093090F0B92F9927B751A0F0D1F0660F771F27
S1130940881F991F1AF0BA95C9F712C0B13081F007
S1130950C3D0B1E00895C0C0672F782F8827B85F4F
S113096039F0B93FCCF3869577956795B395D9F768
S11309703EF490958095709561957F4F8F4F9F4F72
S11309800895E89409C097FB3EF49095809570957E
S113099061957F4F8F4F9F4F9923A9F0F92F96E9C7
S11309A0BB279395F695879577956795B795F1113C
S11309B0F8CFFAF4BB0F11F460FF1BC06F5F7F4FD9
S11309C08F4F9F4F16C0882311F096E911C07723EB
S11309D021F09EE8872F762F05C0662371F096E8F4
S11309E0862F70E060E02AF09A95660F771F881FC3
S11309F0DAF7880F9695879597F90895990F000867
S1130A00550FAA0BE0E8FEEF16161706E807F907DC
S1130A10C0F012161306E407F50798F0621B730B77
S1130A20840B950B39F40A2661F0232B242B252BF8
S1130A3021F408950A2609F4A140A6958FEF811D9B
S1130A40811D089597F99F6780E870E060E008953C
S1130A509FEF80EC089500240A94161617061806D2
S1130A600906089500240A941216130614060506AE
S1130A700895092E0394000C11F4882352F0BB0F3F
S1130A8040F4BF2B11F460FF04C06F5F7F4F8F4FA2
S1130A909F4F089557FD9058440F551F59F05F3FDD
S1130AA071F04795880F97FB991F61F09F3F79F08C
S1130AB087950895121613061406551FF2CF46950E
S1130AC0F1DF08C0161617061806991FF1CF869590
S1130AD07105610508940895E894BB276627772774
S1130AE0CB0197F908950BD0C4CFB5DF28F0BADF56
S1130AF018F0952309F0A6CFABCF1124EECFCADFAF
S1130B00A0F3959FD1F3950F50E0551F629FF0011C
S1130B10729FBB27F00DB11D639FAA27F00DB11D75
S1130B20AA1F649F6627B00DA11D661F829F2227FE
S1130B30B00DA11D621F739FB00DA11D621F839F85
S1130B40A00D611D221F749F3327A00D611D231F5B
S1130B50849F600D211D822F762F6A2F11249F57A9
S1130B6050408AF0E1F088234AF0EE0FFF1FBB1FCC
S1130B70661F771F881F91505040A9F79E3F51056B
S1130B8070F060CFAACF5F3FECF3983EDCF386951C
S1130B9077956795B795F795E7959F5FC1F7FE2B16
S1130BA0880F911D9695879597F90895F894FFCF2E
S9030000FC
