S0100000414345535F4543552E73726563BC
S113000065C0000084C0000082C00000C3C50000B9
S11300107EC000007CC000007AC0000078C00000F0
S113002076C0000074C0000072C0000070C0000000
S11300306EC000006CC000006AC0000068C0000010
S113004066C0000064C0000062C0000060C0000020
S11300505EC000005CC000005AC0000058C0000030
S113006056C00000E6C1000052C0000050C00000AD
S11300704EC000004CC000004AC0000048C0000050
S113008046C0000044C0000042C0000040C0000060
S1130090AFC200003CC000003AC0000038C00000FD
S11300A036C0000034C0000032C0000030C0000080
S11300B02EC00000CDC500002AC0000028C00000EA
S11300C026C0000024C0000006C6000011241FBE84
S11300D0CFEFD1E2DEBFCDBF00E00CBF12E0A0E065
S11300E0B2E0ECECF8E100E00BBF02C007900D9227
S11300F0A630B107D9F722E0A6E0B2E001C01D9214
S1130100A834B207E1F70E9432090C94640C78CF4A
S1130110CF93DF931F921F92CDB7DEB78A83F894F3
S1130120198219C0000088EC90E0FC018081882FBE
S113013090E080729927892BB1F38EEC90E02981AD
S1130140222F30E02A5E3D4FF9012081FC012083FB
S113015089818F5F898399818A81981718F37894AC
S113016000000F900F90DF91CF910895CF93DF930C
S113017000D000D0CDB7DEB785E0E0E0F2E0DE01EC
S1130180129601900D928A95E1F719821CC0000025
S113019080EC90E0FC018081882F90E080729927A8
S11301A0892BB1F386EC90E02981222F30E0AE0157
S11301B04E5F5F4F240F351FF9012081FC0120831E
S11301C089818F5F89838981843008F381E08093FA
S11301D027028FEF80933C02000026960FB6F89416
S11301E0DEBF0FBECDBFDF91CF910895CF93DF93D4
S11301F0CDB7DEB76D970FB6F894DEBF0FBECDBF97
S113020008D780910D02813029F482E68A83109206
S11302100D025EC080910D02833029F482E58A8349
S113022010920D0255C080910D02843029F484E5AA
S11302308A8310920D024CC080910C02882319F419
S113024083E58A8345C080910C02813019F482E7EA
S11302508A833EC080910C02823019F484E78A8339
S113026037C080910C02843019F483E48A8330C04F
S113027080910C02853019F48EE68A8329C080911E
S11302800C02863019F487E68A8322C080910C021E
S1130290873019F48EE48A831BC080910C02893064
S11302A019F480E58A8314C080910C028A3019F411
S11302B089E48A830DC080910C028B3019F483E6A3
S11302C08A8306C080910C028C3011F483E78A8300
S11302D09E012E5F3F4F2F5F3F4F809112029091FE
S11302E01302A0911402B0911502F9018083918345
S11302F0A283B383CE010296059620910F0230911A
S11303001002FC01318320839E012E5F3F4F295F41
S11303103F4F8091220290912302A0912402B09138
S11303202502F90180839183A283B3839E012E5F0A
S11303303F4F255F3F4F80911D0290911E02A09177
S11303401F02B0912002F90180839183A283B383B9
S1130350CE0102960F9620911102FC0120839E018A
S11303602E5F3F4F205F3F4F8091420290914302A6
S1130370A0914402B0914502F90180839183A28344
S1130380B3839E012E5F3F4F2C5E3F4F8091280226
S113039090912902A0912A02B0912B02F901808345
S11303A09183A283B383CE01029660E0B8D58A8F8D
S11303B0CE01029666E0B3D58B8FCE0102966CE037
S11303C0AED58C8FCE01029662E1A9D58D8FF894BB
S11303D019821CC0000080EC90E0FC018081882F11
S11303E090E080729927892BB1F386EC90E0298103
S11303F0222F30E0AE014E5F5F4F240F351FF9010D
S11304002081FC01208389818F5F898389818C31DC
S113041008F3789481EA90E024E0FC012083000052
S11304206D960FB6F894DEBF0FBECDBFDF91CF91AE
S113043008951F920F9200905F000F921124009074
S11304405B000F922F933F934F935F936F937F9330
S11304508F939F93AF93BF93EF93FF93CF93DF93C8
S11304601F92CDB7DEB786EC90E0FC0180818983D2
S113047081E080930B0280912102882309F475C0E6
S1130480109221028981813439F481E08093410200
S113049081E08093210293C08981833469F480913F
S11304A04102813049F4809141028F5F809341027F
S11304B081E08093210283C08981853469F480912D
S11304C04102823049F4809141028F5F809341025E
S11304D081E08093210273C08981833571F4809116
S11304E04102833051F4809141028F5F8093410235
S11304F03DDE81E08093210262C089818F3421F442
S113050081E080930E025BC08981843521F482E00E
S113051080930E0254C089818B34A9F481E08093C6
S1130520210240E061E081EA90E04ED340E060E0E7
S113053081EA90E049D384EA90E028E53EE9FC01B1
S1130540318320833CC08981823529F481E0809302
S113055021024CDE34C010920E02809127028823BF
S113056071F581E0809321022AC0809127028823BB
S113057031F181E08093210280910E02882F90E076
S11305808130910539F08230910581F0892B99F4FD
S113059016D111C08981833511F418D60CC0898114
S11305A0823711F42BD607C00AD105C08981809304
S11305B047023CD6000081E08093210200C0000085
S11305C00F90DF91CF91FF91EF91BF91AF919F91E8
S11305D08F917F916F915F914F913F912F910F90E8
S11305E000925B000F9000925F000F901F9018958F
S11305F01F920F9200905F000F92112400905B00F5
S11306000F922F933F934F935F936F937F938F93A7
S11306109F93AF93BF93EF93FF93CF93DF931F9277
S1130620CDB7DEB78EEC90E0FC018081898381E058
S113063080930B0280912602813031F58981809369
S11306402C0289818B3431F481E08093260210924C
S1130650460279C08981843431F482E08093260291
S11306601092460270C089818E3409F06CC083E018
S1130670809326021092460284E291E02CED3BE046
S1130680FC01318320835FC0809126028230D9F53A
S1130690809146028F5F8093460280914602882FA4
S11306A090E08230910581F083309105B1F001979B
S11306B009F049C08981813409F442C0109246028C
S11306C081E0809326023CC089818C34D9F1109258
S11306D0460281E08093260235C08981853461F425
S11306E081E08093060281E291E021E231E0F901A8
S11306F020812460FC0120831092460281E08093D3
S11307002602000020C0809126028330E1F480910B
S113071046028F5F8093460280914602882F90E0C4
S1130720845D9D4F2981FC012083809146028A309B
S113073050F01092460281E08093260218D103C043
S1130740000001C0000000000F90DF91CF91FF91E5
S1130750EF91BF91AF919F918F917F916F915F9135
S11307604F913F912F910F9000925B000F90009258
S11307705F000F901F901895CF93DF93CDB7DEB72E
S11307808EE4809316028091120280931702809166
S113079013028093180280911402809319028091AD
S11307A0150280931A0210921B0260E086E192E027
S11307B0B6D380931C020000DF91CF910895CF93AC
S11307C0DF93CDB7DEB7000080EC90E0FC018081C0
S11307D0882F90E080729927892BB1F386EC90E002
S11307E026E5FC01208380913B028F5F80933B02CE
S11307F00000DF91CF910895CF93DF931F92CDB77F
S1130800DEB789838CEB90E024EAFC0120830000AE
S11308108CEB90E0FC0180818823D4F789EB90E095
S1130820FC018081882F90E0887F9927089761F0E8
S113083089EB90E0FC018081882F90E0887F9927E4
S1130840409711F08981D8DF8BEB90E02981FC017E
S113085020838CEB90E024E8FC01208300008CEBE7
S113086090E0FC0180818823D4F789EB90E0FC01BF
S11308708081882F90E0887F9927489771F089EBD1
S113088090E0FC018081882F90E0887F9927803454
S1130890910519F007D08981AFDF00000F90DF9137
S11308A0CF910895CF93DF93CDB7DEB78CEB90E073
S11308B024E9FC0120830000DF91CF910895CF93B8
S11308C0DF931F92CDB7DEB789838BEB90E029814C
S11308D0FC0120838CEB90E024E8FC0120830000E1
S11308E08CEB90E0FC0180818823D4F789EB90E0C5
S11308F0FC01808100000F90DF91CF910895CF9388
S1130900DF931F92CDB7DEB789838CEB90E029810A
S1130910222F30E0002436952795079436952795A5
S11309200794322F202D2468FC01208300008CEBD7
S113093090E0FC0180818823D4F789EB90E0FC01EE
S11309408081882F90E0887F99278035910519F060
S11309508981882321F489EB90E0FC0180818BEB71
S113096090E0FC0180810F90DF91CF910895CF93A7
S1130970DF931F921F92CDB7DEB760E08CE292E066
S1130980CED2898366E08CE292E0C9D28A839091C8
S113099038028981981729F4909139028A8198172D
S11309A021F014D48CE080932C028DE292E0FC01BF
S11309B0808180930C028EE292E0FC01808191811F
S11309C09093100280930F028FE292E0FC018081E9
S11309D09181A281B3818093220290932302A093F8
S11309E02402B093250283E392E0FC01808180938A
S11309F0110284E392E0FC0180819181A281B381A0
S1130A008093280290932902A0932A02B0932B0288
S1130A1000000F900F90DF91CF910895CF93DF9353
S1130A2000D01F92CDB7DEB78AE790E0FC01808149
S1130A30882F90E080749927892B09F054C088E7A7
S1130A4090E0FC018081898389E790E0FC0180814A
S1130A508A838A81882F90E0382F22278981882FE2
S1130A6090E0822B932B9C838B838B819C81CC0184
S1130A70A0E0B0E0BC01CD010ED6DC01CB0120E04A
S1130A8030E040E450E4BC01CD0197D6DC01CB0159
S1130A9080931D0290931E02A0931F02B093200224
S1130AA080911D0290911E02A0911F02B09120021C
S1130AB022E538EB4EE95BE3BC01CD017ED6DC01D7
S1130AC0CB0180931D0290931E02A0931F02B0934A
S1130AD020028AE790E02AE730E0F90120812064CF
S1130AE0FC01208301C000000F900F900F900F9025
S1130AF0DF91CF910895CF93DF93CDB7DEB71092F6
S1130B003A028DE390E02DE330E0F9012081246086
S1130B10FC01208381E990E021E930E0F9012081A2
S1130B202360FC012083000088E390E0FC018081C5
S1130B30882F90E081709927892BB1F388E390E0A6
S1130B4028E330E0F90120812160FC01208340E0AA
S1130B5062E08DE390E038D040E061E081E990E02C
S1130B6033D040E060E081E990E02ED084E990E069
S1130B7024E73EE0FC013183208380913C02181677
S1130B802CF080913C028F5F80933C020000DF9147
S1130B90CF9108951F920F9200905F000F9211243D
S1130BA08F93CF93DF93CDB7DEB780913A028F5FF7
S1130BB080933A020000DF91CF918F910F900092C1
S1130BC05F000F901F901895CF93DF9300D01F9272
S1130BD0CDB7DEB79A8389836B834C838C8188235A
S1130BE0C1F08C81882F90E02B81222F30E002C04D
S1130BF0880F991F2A95E2F78C8389819A81FC01D9
S1130C0090818C81292F282B89819A81FC01208352
S1130C1017C08B81282F30E081E090E002C0880F5C
S1130C20991F2A95E2F780958C8389819A81FC012A
S1130C3090818C81292F282389819A81FC0120832A
S1130C4000000F900F900F900F90DF91CF910895B7
S1130C501F920F9200905F000F92112400905B008E
S1130C600F922F933F934F935F936F937F938F9341
S1130C709F93AF93BF93EF93FF93CF93DF93CDB73E
S1130C80DEB740E062E081EA90E09EDF84EA90E033
S1130C902EEE35E8FC013183208398D2109227028E
S1130CA081E0809321020000DF91CF91FF91EF91C9
S1130CB0BF91AF919F918F917F916F915F914F9170
S1130CC03F912F910F9000925B000F9000925F0074
S1130CD00F901F9018951F920F9200905F000F9233
S1130CE0112400905B000F922F933F934F935F93D7
S1130CF06F937F938F939F93AF93BF93EF93FF93E0
S1130D00CF93DF93CDB7DEB785E080930C0240E04C
S1130D1062E081E291E058DF84E291E02CED3BE077
S1130D20FC0131832083109227020000DF91CF91D0
S1130D30FF91EF91BF91AF919F918F917F916F91AF
S1130D405F914F913F912F910F9000925B000F9014
S1130D5000925F000F901F901895CF92DF92EF9250
S1130D60FF920F931F93CF93DF9300D0CDB7DEB7DD
S1130D708EE342DD85E0A3DD8FE33EDD81E0BFDD70
S1130D80898380E0BCDD8A838DDD89818F718983CD
S1130D908A81882F90E08C709927959587959595F1
S1130DA087958B838981882F90E080719927892B7F
S1130DB009F458C089818F7089838981882F90E0D4
S1130DC09C0122953295307F3227207F32278A81F9
S1130DD082958F70882F90E0820F931F20E031E07E
S1130DE0A901481B590BCA01092E000CAA0BBB0B05
S1130DF0BC01CD0152D4DC01CB018093420290931B
S1130E004302A0934402B0934502C0904202D090A2
S1130E104302E0904402F09045028B81882F90E0D9
S1130E20092E000CAA0BBB0BBC01CD0136D4DC018E
S1130E30CB0120E030E040E85EE3BC01CD01BDD44D
S1130E40DC01CB019C01AD01C701B60157D3DC0124
S1130E50CB018093420290934302A0934402B09347
S1130E60450250C08981882F90E09C0122953295DB
S1130E70307F3227207F32278A8182958F70882F96
S1130E8090E0820F931F092E000CAA0BBB0BBC0130
S1130E90CD0103D4DC01CB01809342029093430241
S1130EA0A0934402B09345028B81882F90E0092ED1
S1130EB0000CAA0BBB0BBC01CD01EFD3DC01CB01B1
S1130EC020E030E040E85EE3BC01CD0176D4DC01F3
S1130ED0CB017C018D018091420290914302A0914B
S1130EE04402B09145029C01AD01C801B70107D38A
S1130EF0DC01CB018093420290934302A09344020D
S1130F00B093450200000F900F900F90DF91CF91A6
S1130F101F910F91FF90EF90DF90CF900895CF93A2
S1130F20DF93CDB7DEB728970FB6F894DEBF0FBEB8
S1130F30CDBF9F838E83688719821B821A8240C02B
S1130F401C821D8220C08885482F50E02A813B8165
S1130F50C901880F991F820F931F9A01280F391F07
S1130F608D81882F90E0820F931F2E813F81820F05
S1130F70931FFC01808133D0982F8C81890F8C833F
S1130F808D818F5F8D838D818330E8F28C818F70AA
S1130F908C838C81882F90E02A813B81220F331F20
S1130FA0220F331F02C0880F991F2A95E2F7982F4A
S1130FB08981892B89838A819B8101969B838A837A
S1130FC08A819B81029708F4BBCF898128960FB64A
S1130FD0F894DEBF0FBECDBFDF91CF910895CF93BC
S1130FE0DF931F921F92CDB7DEB78A83198208C0A0
S1130FF08A8181709981890F89838A8186958A8300
S11310008A818823A9F789810F900F90DF91CF916E
S11310100895CF93DF93CDB7DEB780910F029091FF
S1131020100288579C4E9093100280930F02809177
S1131030220290912302A0912402B091250225E876
S11310403BEE41EF51E4BC01CD0159D2DC01CB01AF
S11310508093220290932302A0932402B09325024A
S11310608091220290912302A0912402B091250242
S113107020E030E04AE754E4BC01CD019AD31816CD
S113108044F410922202109223021092240210922D
S113109025028091120290911302A0911402B09142
S11310A015022DEC3CEC4CE45DE3BC01CD0127D2F0
S11310B0DC01CB018093120290931302A0931402DB
S11310C0B09315028091120290911302A091140220
S11310D0B09115022AE939E949E950E4BC01CD018E
S11310E068D3181644F4109212021092130210924C
S11310F014021092150280910F0290911002813512
S1131100934C20F081E08093110202C010921102EE
S113111088E491E6ABE8B2E4809328029093290234
S1131120A0932A02B0932B0285E080930C02000066
S1131130DF91CF910895CF93DF9300D01F92CDB765
S1131140DEB79C838B8386E490E025E0FC0120835A
S113115085E490E025E430E0F90120812360FC017E
S113116020831A82198219C0000085E390E0FC01F3
S11311708081882F90E081709927892BB1F385E3D2
S113118090E025E330E0F90120812160FC01208317
S113119089819A8101969A83898329813A818B81F5
S11311A09C812817390700F340E061E085E490E072
S11311B00BDD40E060E085E490E006DD00000F9088
S11311C00F900F900F90DF91CF910895CF93DF93FD
S11311D0CDB7DEB783E58093160206C081E00E9496
S11311E0880085E090E0A7DF80912C028B34B1F772
S11311F010922C020000DF91CF910895CF93DF93DA
S1131200CDB7DEB782E78093160206C081E00E9464
S1131210880085E090E08FDF80912C028B34B1F759
S113122010922C020000DF91CF910895CF93DF93A9
S1131230CDB7DEB784E7809316028091470280938E
S1131240170206C082E00E94880085E090E073DF08
S113125080912C028B34B1F710922C020000DF91A4
S1131260CF910895CF93DF93CDB7DEB74AD0D6DBC5
S113127042DC73DD8091120290911302A09114025A
S1131280B09115022DEC3CEC4CE45DE3BC01CD01C6
S113129036D1DC01CB018093120290931302A09308
S11312A01402B09315028091120290911302A0913E
S11312B01402B09115022AE939E949E950E4BC0164
S11312C0CD0177D2181644F4109212021092130230
S11312D0109214021092150280910602882321F0C4
S11312E04BDA85E00E94880080912702882309F464
S11312F0BECF80913C02813009F0B9CF0E94F60044
S1131300B6CFCF93DF9300D01F92CDB7DEB78AE27A
S113131090E02AE230E0F90120812062FC01208380
S113132084EC90E02CE030E0FC013183208381ECFC
S113133090E028E9FC01208382EC90E026E0FC01A7
S113134020838CEC90E02CE030E0FC01318320839E
S113135089EC90E028E9FC0120838AEC90E026E007
S1131360FC01208381E0809326021092460282E3EE
S113137090E0E1DE8AE290E02AE230E0F9012081A7
S11313802160FC01208388EB90E028E0FC012083AD
S113139040E060E089EB90E017DC40E061E089EB3D
S11313A090E012DC8CEB90E024E0FC0120838CE7DD
S11313B090E020E4FC0120838AE790E027E8FC0128
S11313C0208310920A02789484E890E02CED3BE0AC
S11313D0FC013183208384E990E024E73EE0FC01B2
S11313E03183208381E890E023E0FC01208384EAB8
S11313F090E02EEE35E8FC013183208384E291E015
S113140028E53EE9FC013183208382E790E021E076
S1131410FC01208383E790E021E0FC01208384E247
S113142091E02CED3BE0FC01318320838AE790E0DE
S11314302AE730E0F90120812064FC012083109226
S1131440120210921302109214021092150289E6ED
S113145090E020E3FC01208340E062E08AE290E037
S1131460B3DB84E09CE0A4E9B1E489839A83AB8391
S1131470BC8329813A814B815C8161E772EE83EC04
S11314809EE3A1D0DC01CB0180933D0290933E0208
S1131490A0933F02B093400210920C0281E080932B
S11314A00D0281E080932102109212021092130225
S11314B010921402109215021092100210920F0250
S11314C010922202109223021092240210922502FA
S11314D01092110210921D0210921E0210921F020D
S11314E01092200210923B0210923C0200000F90D6
S11314F00F900F900F90DF91CF9108955058BB2714
S1131500AA270ED01CC10DD130F012D120F031F435
S11315109F3F11F41EF402C10EF4E095E7FBF8C0FE
S1131520E92F1ED180F3BA17620773078407950762
S113153018F071F49EF536C10EF4E0950B2EBA2F17
S1131540A02D0B01B90190010C01CA01A0011124C5
S1131550FF27591B99F0593F50F4503E68F11A1671
S1131560F040A22F232F342F4427585FF3CF469502
S113157037952795A795F0405395C9F77EF41F1624
S1131580BA0B620B730B840BBAF09150A1F0FF0FEE
S1131590BB1F661F771F881FC2F70EC0BA0F621FDA
S11315A0731F841F48F4879577956795B795F795CA
S11315B09E3F08F0B3CF9395880F08F09927EE0F5C
S11315C09795879508950CD0BAC0B2D040F0A9D0B1
S11315D030F021F45F3F19F09BC05111E4C09EC06C
S11315E0BFD098F39923C9F35523B1F3951B550B39
S11315F0BB27AA2762177307840738F09F5F5F4FE2
S1131600220F331F441FAA1FA9F333D00E2E3AF022
S1131610E0E830D091505040E695001CCAF729D03C
S1131620FE2F27D0660F771F881FBB1F261737078B
S11316304807AB07B0E809F0BB0B802DBF01FF27BB
S113164093585F4F2AF09E3F510568F061C0ABC0CC
S11316505F3FECF3983EDCF3869577956795B795F5
S1131660F7959F5FC9F7880F911D9695879597F910
S11316700895E1E0660F771F881FBB1F6217730789
S11316808407BA0720F0621B730B840BBA0BEE1F9E
S113169088F7E0950895E89409C097FB3EF4909587
S11316A08095709561957F4F8F4F9F4F9923A9F037
S11316B0F92F96E9BB279395F695879577956795C6
S11316C0B795F111F8CFFAF4BB0F11F460FF1BC00A
S11316D06F5F7F4F8F4F9F4F16C0882311F096E99D
S11316E011C0772321F09EE8872F762F05C066234B
S11316F071F096E8862F70E060E02AF09A95660F04
S1131700771F881FDAF7880F9695879597F90895BC
S113171097F99F6780E870E060E008959FEF80ECA0
S1131720089500240A941616170618060906089543
S113173000240A9412161306140605060895092EA9
S11317400394000C11F4882352F0BB0F40F4BF2B18
S113175011F460FF04C06F5F7F4F8F4F9F4F089558
S113176057FD9058440F551F59F05F3F71F047954E
S1131770880F97FB991F61F09F3F79F08795089533
S1131780121613061406551FF2CF4695F1DF08C052
S1131790161617061806991FF1CF8695710561056F
S11317A008940895E894BB2766277727CB0197F917
S11317B0089566D008F48FEF08950BD0C0CFB1DF41
S11317C028F0B6DF18F0952309F0A2CFA7CF112493
S11317D0EACFC6DFA0F3959FD1F3950F50E0551FD4
S11317E0629FF001729FBB27F00DB11D639FAA2772
S11317F0F00DB11DAA1F649F6627B00DA11D661FC1
S1131800829F2227B00DA11D621F739FB00DA11DE1
S1131810621F839FA00D611D221F749F3327A00D9B
S1131820611D231F849F600D211D822F762F6A2F37
S113183011249F5750408AF0E1F088234AF0EE0FBC
S1131840FF1FBB1F661F771F881F91505040A9F7C9
S11318509E3F510570F05CCFA6CF5F3FECF3983EFE
S1131860DCF3869577956795B795F795E7959F5F30
S1131870C1F7FE2B880F911D9695879597F90895CA
S1131880990F0008550FAA0BE0E8FEEF161617068D
S1131890E807F907C0F012161306E407F50798F0F5
S11318A0621B730B840B950B39F40A2661F0232B0E
S11318B0242B252B21F408950A2609F4A140A6958A
S10F18C08FEF811D811D0895F894FFCF67
S10918CC44414C450000FC
S9030000FC
