:1000000065C0000083C0000081C00000FAC300008A
:100010007DC000007BC0000079C0000077C00000F8
:1000200075C0000073C0000071C000006FC0000008
:100030006DC000006BC0000069C0000067C0000018
:1000400065C0000063C0000061C000005FC0000028
:100050005DC000005BC0000059C0000057C0000038
:1000600055C00000BAC1000051C000004FC00000E0
:100070004DC000004BC0000049C0000047C0000058
:1000800045C0000043C0000041C000003FC0000068
:1000900083C200003BC0000039C0000037C0000030
:1000A00035C0000033C0000031C000002FC0000088
:1000B0002DC0000004C4000029C0000027C00000BB
:1000C00025C0000023C0000042C4000011241FBE50
:1000D000CFEFD1E2DEBFCDBF00E00CBF12E0A0E069
:1000E000B2E0EEEDF2E100E00BBF02C007900D922E
:1000F000A630B107D9F722E0A6E0B2E001C01D9218
:10010000AE33B207E1F759D60C946D0979CFCF938E
:10011000DF931F921F92CDB7DEB78A83F8941982BE
:1001200019C0000088EC90E0FC018081882F90E0ED
:1001300080729927892BB1F38EEC90E02981222FD0
:1001400030E02B5E3D4FF9012081FC012083898145
:100150008F5F898399818A81981718F378940000BA
:100160000F900F90DF91CF910895CF93DF93CDB78C
:10017000DEB781E48093150283E48093160285E460
:100180008093170283E58093180284E0C0DF0000AB
:10019000DF91CF910895CF93DF9300D000D0CDB7FA
:1001A000DEB785E0E0E0F2E0DE01129601900D920C
:1001B0008A95E1F719821CC0000080EC90E0FC01F8
:1001C0008081882F90E080729927892BB1F386EC8B
:1001D00090E02981222F30E0AE014E5F5F4F240F67
:1001E000351FF9012081FC01208389818F5F89837C
:1001F0008981843008F381E08093260200002696EE
:100200000FB6F894DEBF0FBECDBFDF91CF9108953A
:10021000CF93DF93CDB7DEB766970FB6F894DEBF06
:100220000FBECDBF6CD480910C02813029F482E6E0
:100230008A8310920C0250C080910C02833029F402
:1002400082E58A8310920C0247C080910C028430B0
:1002500029F484E58A8310920C023EC080910B023F
:10026000882319F483E58A8337C080910B0281309B
:1002700019F482E78A8330C080910B02823019F42E
:1002800084E78A8329C080910B02843019F483E4C7
:100290008A8322C080910B02853019F48EE68A830E
:1002A0001BC080910B02863019F487E68A8314C044
:1002B00080910B02873019F48EE48A830DC08091FF
:1002C0000B02893019F480E58A8306C080910B0205
:1002D0008A3011F489E48A839E012E5F3F4F2F5F9D
:1002E0003F4F8091110290911202A0911302B091A0
:1002F0001402F90180839183A283B383CE01029615
:10030000059620910E0230910F02FC01318320836B
:10031000CE01029607962091230230912402FC011F
:10032000318320839E012E5F3F4F275F3F4F809197
:100330001F0290912002A0912102B0912202F901A6
:1003400080839183A283B383CE0102960D96209180
:100350001002FC0120839E012E5F3F4F225F3F4F22
:100360008091380290913902A0913A02B0913B02FB
:10037000F90180839183A283B383CE01029629D3AE
:10038000F89419821CC0000080EC90E0FC01808190
:10039000882F90E080729927892BB1F386EC90E04A
:1003A0002981222F30E0AE014E5F5F4F240F351FB1
:1003B000F9012081FC01208389818F5F89838981F4
:1003C000853108F37894000066960FB6F894DEBF86
:1003D0000FBECDBFDF91CF9108951F920F92009075
:1003E0005F000F92112400905B000F922F933F93B8
:1003F0004F935F936F937F938F939F93AF93BF932D
:10040000EF93FF93CF93DF931F92CDB7DEB786ECC8
:1004100090E0FC018081898381E080930A028091D1
:100420001E02882309F475C010921E02898181344E
:1004300039F481E08093370281E080931E0293C0FB
:100440008981833469F480913702813049F4809145
:1004500037028F5F8093370281E080931E0283C052
:100460008981853469F480913702823049F4809122
:1004700037028F5F8093370281E080931E0273C042
:100480008981833571F480913702833051F48091F2
:1004900037028F5F809337027EDE81E080931E02F9
:1004A00062C089818F3421F481E080930D025BC0AA
:1004B0008981843521F482E080930D0254C08981C2
:1004C0008B34A9F481E080931E0240E061E081EA70
:1004D00090E0B1D140E060E081EA90E0ACD184EA04
:1004E00090E028E53EE9FC01318320833CC089810E
:1004F000823529F481E080931E028ADE34C0109296
:100500000D0280912602882371F581E080931E02FE
:100510002AC080912602882331F181E080931E0257
:1005200080910D02882F90E08130910539F0823062
:10053000910581F0892B99F401D111C0898183350E
:1005400011F4F2D30CC08981823711F404D407C0AE
:10055000F5D005C0898180933D0214D4000081E06C
:1005600080931E0200C000000F90DF91CF91FF9199
:10057000EF91BF91AF919F918F917F916F915F911B
:100580004F913F912F910F9000925B000F9000923E
:100590005F000F901F9018951F920F9200905F00C0
:1005A0000F92112400905B000F922F933F938F9333
:1005B0009F93EF93FF93CF93DF931F92CDB7DEB757
:1005C0008EEC90E0FC018081898381E080930A02B7
:1005D00080912502813031F58981809329028981BA
:1005E0008B3431F481E08093250210923C0278C074
:1005F0008981843431F482E08093250210923C0298
:100600006FC089818E3409F06BC083E0809325022E
:1006100010923C0284E291E02CED3BE0FC0131833E
:1006200020835EC0809125028230D9F580913C0202
:100630008F5F80933C0280913C02882F90E0823053
:10064000910581F083309105B1F0019709F048C020
:100650008981813409F441C010923C0281E0809389
:1006600025023BC089818C34D1F110923C0281E09B
:100670008093250234C08981853461F481E08093C0
:10068000260281E291E021E231E0F901208124603B
:10069000FC01208310923C0281E08093250200003F
:1006A0001FC0809125028330D9F480913C028F5F76
:1006B00080933C0280913C02882F90E0875D9D4FA3
:1006C0002981FC01208380913C02883048F01092FF
:1006D0003C0281E08093250203C0000001C00000BD
:1006E00000000F90DF91CF91FF91EF919F918F913B
:1006F0003F912F910F9000925B000F9000925F004E
:100700000F901F901895CF93DF93CDB7DEB78EE48F
:10071000809315028091110280931602809112023B
:100720008093170280911302809318028091140223
:10073000809319020000DF91CF910895CF93DF934A
:10074000CDB7DEB7000080EC90E0FC018081882FFF
:1007500090E080729927892BB1F386EC90E026E532
:10076000FC012083809132028F5F8093320200006F
:10077000DF91CF910895CF93DF93CDB7DEB710927D
:1007800031028DE390E02DE330E0F9012081246017
:10079000FC01208381E990E021E930E0F90120812A
:1007A0002360FC012083000088E390E0FC0180814D
:1007B000882F90E081709927892BB1F388E390E02E
:1007C00028E330E0F90120812160FC01208340E032
:1007D00062E08DE390E02FD040E061E081E990E0BD
:1007E0002AD040E060E081E990E025D084E990E003
:1007F00024E73EE0FC01318320830000DF91CF91AC
:1008000008951F920F9200905F000F9211248F9312
:10081000CF93DF93CDB7DEB7809131028F5F8093A6
:1008200031020000DF91CF918F910F9000925F0015
:100830000F901F901895CF93DF9300D01F92CDB7E4
:10084000DEB79A8389836B834C838C818823C1F0C4
:100850008C81882F90E02B81222F30E002C0880FFE
:10086000991F2A95E2F78C8389819A81FC019081F6
:100870008C81292F282B89819A81FC01208317C024
:100880008B81282F30E081E090E002C0880F991F13
:100890002A95E2F780958C8389819A81FC01908169
:1008A0008C81292F282389819A81FC0120830000D3
:1008B0000F900F900F900F90DF91CF9108951F929E
:1008C0000F9200905F000F92112400905B000F9236
:1008D0002F933F934F935F936F937F938F939F9348
:1008E000AF93BF93EF93FF93CF93DF93CDB7DEB773
:1008F00040E061E081EA90E09EDF40E060E081EA74
:1009000090E099DF84EA90E028E53EE9FC0131833C
:1009100020830AD21092260281E080931E020000FA
:10092000DF91CF91FF91EF91BF91AF919F918F9107
:100930007F916F915F914F913F912F910F90009216
:100940005B000F9000925F000F901F9018951F9210
:100950000F9200905F000F92112400905B000F92A5
:100960002F933F934F935F936F937F938F939F93B7
:10097000AF93BF93EF93FF93CF93DF93CDB7DEB7E2
:1009800085E080930B0240E062E081E291E053DF7A
:1009900084E291E02CED3BE0FC0131832083109256
:1009A00026020000DF91CF91FF91EF91BF91AF91AF
:1009B0009F918F917F916F915F914F913F912F9177
:1009C0000F9000925B000F9000925F000F901F90BD
:1009D0001895CF93DF93CDB7DEB728970FB6F8946D
:1009E000DEBF0FBECDBF98878F83198260C01A8289
:1009F0001C821B8248C01D821E8228C08981282F2C
:100A000030E0C901880F991F820F931F880F991F2B
:100A1000AC012B813C81C901880F991F820F931F64
:100A20009A01280F391F8E81882F90E0820F931F23
:100A30002F813885820F931FFC01808146D0982F2B
:100A40008D81890F8D838E818F5F8E838E81833020
:100A5000A8F28D8187708D838D81882F90E02B8106
:100A60003C81220F331F220F331F02C0880F991FB2
:100A70002A95E2F7982F8A81892B8A838B819C8122
:100A800001969C838B838B819C81029708F4B3CF62
:100A90008981882F90E042969C018F819885820FF2
:100AA000931F2A81FC01208389818F5F898389813B
:100AB000833008F49CCF000028960FB6F894DEBF70
:100AC0000FBECDBFDF91CF910895CF93DF931F92DB
:100AD0001F92CDB7DEB78A83198208C08A818170E0
:100AE0009981890F89838A8186958A838A8188235F
:100AF000A9F789810F900F90DF91CF910895CF933F
:100B0000DF93CDB7DEB780911F0290912002A091B4
:100B10002102B09122022DEC3CEC4CE45EE3BC01DE
:100B2000CD0196D2DC01CB0180931F02909320026D
:100B3000A0932102B093220280911F029091200283
:100B4000A0912102B09122022DEC3CEC4CE251E448
:100B5000BC01CD019AD3181664F480E090E0A0EFB8
:100B6000B0E480931F0290932002A0932102B093DF
:100B7000220280910E0290910F0288579C4E909312
:100B80000F0280930E0280912302909124028854D8
:100B9000944F9093240280932302809111029091AC
:100BA0001202A0911302B09114022DEC3CEC4CE423
:100BB0005DE3BC01CD014CD2DC01CB01809311027D
:100BC00090931202A0931302B09314028091110229
:100BD00090911202A0911302B09114022AE939E90E
:100BE00049E950E4BC01CD0150D3181644F41092E9
:100BF00011021092120210921302109214028091AC
:100C00000E0290910F028135934C20F081E0809389
:100C1000100202C0109210028091380290913902A5
:100C2000A0913A02B0913B022FE832EC4DEA50E439
:100C3000BC01CD010DD2DC01CB0180933802909331
:100C40003902A0933A02B0933B028091380290910E
:100C50003902A0913A02B0913B0220E030E049E233
:100C600053E4BC01CD0111D3181664F487ED93EA67
:100C7000A0E3BFE38093380290933902A0933A0235
:100C8000B0933B0285E080930B020000DF91CF918F
:100C90000895CF93DF9300D01F92CDB7DEB79C832A
:100CA0008B8386E490E025E0FC01208385E490E0DE
:100CB00025E430E0F90120812360FC0120831A82C1
:100CC000198219C0000085E390E0FC018081882F23
:100CD00090E081709927892BB1F385E390E025E3BB
:100CE00030E0F90120812160FC01208389819A8113
:100CF00001969A83898329813A818B819C81281767
:100D0000390700F340E061E085E490E094DD40E0E5
:100D100060E085E490E08FDD00000F900F900F9071
:100D20000F90DF91CF910895CF93DF93CDB7DEB7CA
:100D300083E58093150205C081E0E9D985E090E064
:100D4000A8DF809129028B34B9F7109229020000A4
:100D5000DF91CF910895CF93DF93CDB7DEB782E7D0
:100D60008093150205C081E0D2D985E090E091DF43
:100D7000809129028B34B9F7109229020000DF918B
:100D8000CF910895CF93DF93CDB7DEB784E78093FB
:100D9000150280913D028093160205C082E0B7D90A
:100DA00085E090E076DF809129028B34B9F71092CC
:100DB00029020000DF91CF910895CF93DF93CDB743
:100DC000DEB741D080912602882309F4CED9D3DC46
:100DD0008091110290911202A0911302B09114021D
:100DE0002DEC3CEC4CE45DE3BC01CD0131D1DC01E8
:100DF000CB018093110290931202A0931302B0933F
:100E000014028091110290911202A0911302B091EC
:100E100014022AE939E949E950E4BC01CD0135D28F
:100E2000181644F41092110210921202109213023A
:100E30001092140280912602882319F064DC85E068
:100E400066D9E6D9BFCFCF93DF9300D01F92CDB73D
:100E5000DEB78AE290E02AE230E0F90120812062E8
:100E6000FC01208384EC90E02CE030E0FC01318335
:100E7000208381EC90E028E9FC01208382EC90E063
:100E800026E0FC0120838CEC90E02CE030E0FC01BB
:100E90003183208389EC90E028E9FC0120838AECEF
:100EA00090E026E0FC01208381E0809325021092EF
:100EB0003C0282E390E0EDDE04C057D98AE090E086
:100EC000E8DE809126028823C1F38AE290E02AE2DC
:100ED00030E0F90120812160FC01208388EB90E063
:100EE00028E0FC01208340E060E089EB90E0A3DC97
:100EF00040E061E089EB90E09EDC8CEB90E024E048
:100F0000FC0120838CE790E020ECFC0120838AE741
:100F100090E027E8FC01208310920902789484E88D
:100F200090E02CED3BE0FC013183208384E990E0EC
:100F300024E73EE0FC013183208381E890E023E058
:100F4000FC01208384EA90E028E53EE9FC0131833E
:100F5000208384E291E028E53EE9FC01318320838F
:100F600082E790E021E0FC01208383E790E021E02C
:100F7000FC01208384E291E02CED3BE0FC01318315
:100F800020838AE790E02AE730E0F901208120649D
:100F9000FC0120831092110210921202109213028F
:100FA0001092140289E690E020E3FC01208340E0E7
:100FB00062E08AE290E03FDC84E09CE0A4E9B1E4F6
:100FC00089839A83AB83BC8329813A814B815C817D
:100FD00061E772EE83EC9EE39FD0DC01CB0180934E
:100FE000330290933402A0933502B09336021092EC
:100FF0000B0281E080930C0281E080931E0210922C
:101000001102109212021092130210921402109206
:101010000F0210920E0210922402109223021092DC
:10102000100280E090E0A0EFB0E480931F02909364
:101030002002A0932102B0932202109232020000FB
:101040000F900F900F900F90DF91CF91089550580F
:10105000BB27AA270ED0DFC0D0D030F0D5D020F0EB
:1010600031F49F3F11F41EF4C5C00EF4E095E7FB88
:10107000BBC0E92FE1D080F3BA176207730784077A
:10108000950718F071F49EF5F9C00EF4E0950B2E5B
:10109000BA2FA02D0B01B90190010C01CA01A001CA
:1010A0001124FF27591B99F0593F50F4503E68F125
:1010B0001A16F040A22F232F342F4427585FF3CF66
:1010C000469537952795A795F0405395C9F77EF437
:1010D0001F16BA0B620B730B840BBAF09150A1F080
:1010E000FF0FBB1F661F771F881FC2F70EC0BA0F06
:1010F000621F731F841F48F4879577956795B7958E
:10110000F7959E3F08F0B3CF9395880F08F0992785
:10111000EE0F9795879508950CD07DC075D040F05F
:101120006CD030F021F45F3F19F05EC05111A7C0C0
:1011300061C082D098F39923C9F35523B1F3951B6D
:10114000550BBB27AA2762177307840738F09F5FE8
:101150005F4F220F331F441FAA1FA9F333D00E2E57
:101160003AF0E0E830D091505040E695001CCAF7C4
:1011700029D0FE2F27D0660F771F881FBB1F261789
:1011800037074807AB07B0E809F0BB0B802DBF015C
:10119000FF2793585F4F2AF09E3F510568F024C007
:1011A0006EC05F3FECF3983EDCF3869577956795CC
:1011B000B795F7959F5FC9F7880F911D969587950D
:1011C00097F90895E1E0660F771F881FBB1F62172C
:1011D00073078407BA0720F0621B730B840BBA0BEA
:1011E000EE1F88F7E095089597F99F6780E870E013
:1011F00060E008959FEF80EC089500240A9416168D
:10120000170618060906089500240A9412161306F4
:10121000140605060895092E0394000C11F4882382
:1012200052F0BB0F40F4BF2B11F460FF04C06F5F9E
:101230007F4F8F4F9F4F089557FD9058440F551F74
:1012400059F05F3F71F04795880F97FB991F61F048
:101250009F3F79F087950895121613061406551FBF
:10126000F2CF4695F1DF08C0161617061806991F2B
:10127000F1CF86957105610508940895E894BB2720
:1012800066277727CB0197F9089503D008F48FEFED
:101290000895990F0008550FAA0BE0E8FEEF161607
:1012A0001706E807F907C0F012161306E407F5075A
:1012B00098F0621B730B840B950B39F40A2661F0CE
:1012C000232B242B252B21F408950A2609F4A14071
:0E12D000A6958FEF811D811D0895F894FFCF24
:0612DE0044414C450000F4
:00000001FF
