S0100000414345535F4543552E73726563BC
S113000065C0000082C0000080C0000034C300004E
S11300107CC000007AC0000078C0000076C00000F8
S113002074C0000072C0000070C000006EC0000008
S11300306CC000006AC0000068C0000066C0000018
S113004064C0000062C0000060C000005EC0000028
S11300505CC000005AC0000058C0000056C0000038
S113006054C000001AC2000050C000004EC000007E
S11300704CC000004AC0000048C0000046C0000058
S113008044C0000042C0000040C0000005C300009E
S11300903CC000003AC0000038C0000036C0000078
S11300A034C0000032C0000030C000002EC0000088
S11300B02CC0000033C3000028C0000026C000008C
S11300C024C0000022C0000060C3000011241FBE31
S11300D0CFEFD1E2DEBFCDBF00E00CBF12E0A0E065
S11300E0B2E0E8EAFCE000E00BBF02C007900D922A
S11300F0AA30B107D9F722E0AAE0B2E001C01D920C
S1130100A832B207E1F795D3CDC57ACFCF93C82FE4
S1130110E8ECF0E0808185FFFDCF40E060E088E21C
S113012090E0E2D283E080932101C093CE00E8EC1A
S1130130F0E080818823ECF741E060E088E290E021
S1130140D3D240E061E081E291E0CED240E060E0D1
S113015081E291E0C9D288E59EE9909325018093DC
S113016024018091CE00CF9108959F92AF92BF92C7
S1130170CF92DF92EF92FF920F931F93CF93DF936F
S1130180CDB7DEB72A970FB6F894DEBF0FBECDBF4A
S113019085E0E5E0F2E0DE01119601900D928A958A
S11301A0E1F7CE0101967C016E0196E0C90ED11CE7
S11301B09C2CAD2C1FC00B2D10E0F701E00FF11F9C
S11301C08081A4DFF601E00FF11F8083B394F7016F
S11301D001900020E9F73197EE19FF098B2D90E08B
S11301E0E817F90740F760E072E0892D9A2D51D5A0
S11301F0892B11F0B12CDFCF2A960FB6F894DEBF0D
S11302000FBECDBFDF91CF911F910F91FF90EF9063
S1130210DF90CF90BF90AF909F900895CF93DF93DE
S113022000D01F921F92CDB7DEB785E0E0E0F2E088
S1130230DE01119601900D928A95E1F7BE016F5F80
S11302407F4FAE014A5F5F4FE0ECF0E026EC30E018
S1130250808185FFFDCFDB018D91BD01D9018C9398
S113026064177507A9F781E0809320020F900F901F
S11302700F900F900F90DF91CF910895CF93DF935C
S1130280CDB7DEB72E970FB6F894DEBF0FBECDBF45
S113029080910C02811103C088E4898318C08130E5
S11302A019F483E5898313C0823019F482E78983C2
S11302B00EC0833019F48EE4898309C0843019F4A4
S11302C084E7898304C0853011F485E489838091AF
S11302D0110290911202A0911302B09114028A8328
S11302E09B83AC83BD8380910E0290910F029F8308
S11302F08E8380911E0290911F0299878887809136
S11303001A0290911B02A0911C02B0911D028A87CF
S11303109B87AC87BD87809110028E87BE016F5F7B
S11303207F4FAE01415F5F4FE0ECF0E026EC30E040
S1130330808185FFFDCFDB018D91BD01D9018C93B7
S113034064177507A9F783E08093A1002E960FB672
S1130350F894DEBF0FBECDBFDF91CF9108951F93F8
S1130360CF93DF9300D01F92CDB7DEB7B09B84C08C
S11303708EE489838091110290911202A09113025C
S1130380B09114028A839B83AC83BD8310920B02C9
S113039010E003C011E001C011E0143018F080E057
S11303A0B5DE08C0E1E0F0E0EC0FFD1FE10FF11D48
S11303B08081ACDE1230A1F028F4112349F0113011
S11303C051F032C01430E9F0B8F0153031F12CC0DE
S11303D080930C0241C010920E0280930F023CC025
S11303E020910E0230910F02A901482BCA0190936B
S11303F00F0280930E0230C010921E0280931F02DF
S11304002BC020911E0230911F02A901482BCA0162
S113041090931F0280931E021FC08093100280914C
S11304200B028111B7CF20C010FF09C0E12FF0E00B
S1130430EE0FFF1FE95EFD4F108281830DC0E12F97
S1130440F0E0EE0FFF1FE95EFD4F20813181A9012D
S1130450482BCA019183808380910B0281119CCF28
S11304601F5F163008F499CF09DFB09A8CED9BE03A
S113047090938500809384000F900F900F900F90BD
S1130480DF91CF911F910895E0ECF0E0808185FF2A
S1130490FDCF82E58093C60008951F920F920FB698
S11304A00F9211240BB60F922F933F934F935F93A8
S11304B06F937F938F939F93AF93BF93EF93FF9328
S11304C08091C60091E090930B02909119029923B8
S11304D071F110921902833429F481E08093190296
S11304E09DDE43C08F3421F481E080930D023DC032
S11304F0843521F482E080930D0237C08B34A1F45B
S113050081E08093190240E061E081EA90E0ECD060
S113051040E060E081EA90E0E7D088E59EE99093CE
S1130520A5008093A40021C010920D021EC09091DA
S113053020029923D1F090910D02913031F018F0FE
S1130540923069F00FC0A0DF0DC0833511F444D19F
S113055009C0823711F44DD105C096DF03C08093E2
S1130560270254D181E080931902FF91EF91BF914A
S1130570AF919F918F917F916F915F914F913F9137
S11305802F910F900BBE0F900FBE0F901F901895D8
S113059080917A0086FD38C060917800809179005E
S11305A070E0782B80E090E083D2209115023091A6
S11305B016024091170250911802AED160931502B1
S11305C070931602809317029093180220910A02E6
S11305D0223081F460931A0270931B0280931C02F0
S11305E090931D02ECE7F0E080818D7F8083109270
S11305F00A020895ECE7F0E080818F5F80838091A8
S11306000A028F5F80930A02089580912202811169
S11306100CC010922102EA9AE1E9F0E08081836043
S1130620808381E0809322020895823019F56091DD
S1130630210270E080E090E03BD2209123023091CF
S113064024024091250250912602C0D227E53BE7BF
S113065048E45EE360D121E732EE43EC5EE3C0D1CF
S11306606093110270931202809313029093140208
S11306701092220208951F920F920FB60F92112426
S11306808F93809121028F5F809321028F910F902D
S11306900FBE0F901F9018951F920F920FB60F92D6
S11306A011240BB60F928F939F93EF93FF93EA98C5
S11306B0E1E9F0E080818D7F808380818E7F80837B
S11306C08CED9BE0909395008093940082E080935E
S11306D02202FF91EF919F918F910F900BBE0F908B
S11306E00FBE0F901F901895442359F050E002C09C
S11306F0440F551F6A95E2F7FC012081422B408389
S11307000895FC01408121E030E002C0220F331F34
S11307106A95E2F720952423208308951F920F926F
S11307200FB60F9211240BB60F922F933F934F9352
S11307305F936F937F938F939F93AF93BF93EF9345
S1130740FF93E1EAF0E080818D7F808380818E7F5A
S1130750808388E59EE99093A5008093A4003CD013
S113076010922002FF91EF91BF91AF919F918F91D1
S11307707F916F915F914F913F912F910F900BBE9D
S11307800F900FBE0F901F9018951F920F920FB6E7
S11307900F9211240BB60F928F939F93EF93FF93B5
S11307A085E080930C02E1E2F1E080818D7F80831B
S11307B080818E7F808388E59EE9909325018093D4
S11307C02401FF91EF919F918F910F900BBE0F9099
S11307D00FBE0F901F90189510920B0283E596DCC4
S11307E080E094DC8B34D1F780910B028111F4CF3B
S11307F0089510920B0282E789DC80E087DC8B3459
S1130800D1F780910B028111F4CF0895CF93C09159
S1130810270210920B0284E779DC8C2F77DC80E0CE
S113082075DC8B34C1F780910B028111EFDFCF911E
S1130830089505D009D0ACDEE8DE91DDFCCF87B1A8
S113084087B9319BFECF0895CF93559A389A409A31
S11308508CE090E09093C5008093C40088E9809375
S1130860C10086E08093C200C0ECC093CA0088E156
S11308708093C90087E690E09093CD008093CC00EC
S113088074DCC0937C00EAE7F0E087E88083109290
S11308900A0278948CED9BE0909385008093840009
S11308A0909395008093940081E08093710093E08D
S11308B09093810028E53EE93093A5002093A4009D
S11308C03093250120932401809372008093730058
S11308D0808180648083109211021092120210921F
S11308E013021092140280E38093690040E062E0F6
S11308F08AE290E0F9DE85E29CE5A9EABCE3809314
S1130900230290932402A0932502B093260210920E
S11309100C02CF9108955058BB27AA270ED01CC1B2
S11309200DD130F012D120F031F49F3F11F41EF4B8
S113093002C10EF4E095E7FBF8C0E92F1ED180F365
S1130940BA17620773078407950718F071F49EF5C8
S113095036C10EF4E0950B2EBA2FA02D0B01B90170
S113096090010C01CA01A0011124FF27591B99F021
S1130970593F50F4503E68F11A16F040A22F232F2D
S1130980342F4427585FF3CF469537952795A7957D
S1130990F0405395C9F77EF41F16BA0B620B730B24
S11309A0840BBAF09150A1F0FF0FBB1F661F771F95
S11309B0881FC2F70EC0BA0F621F731F841F48F44A
S11309C0879577956795B795F7959E3F08F0B3CFD0
S11309D09395880F08F09927EE0F979587950895BA
S11309E00CD0BAC0B2D040F0A9D030F021F45F3FAF
S11309F019F09BC05111E4C09EC0BFD098F3992355
S1130A00C9F35523B1F3951B550BBB27AA276217CE
S1130A107307840738F09F5F5F4F220F331F441F13
S1130A20AA1FA9F333D00E2E3AF0E0E830D091504B
S1130A305040E695001CCAF729D0FE2F27D0660F38
S1130A40771F881FBB1F261737074807AB07B0E877
S1130A5009F0BB0B802DBF01FF2793585F4F2AF08D
S1130A609E3F510568F061C0ABC05F3FECF3983E18
S1130A70DCF3869577956795B795F7959F5FC9F7EA
S1130A80880F911D9695879597F90895E1E0660F73
S1130A90771F881FBB1F621773078407BA0720F0EC
S1130AA0621B730B840BBA0BEE1F88F7E095089555
S1130AB0E89409C097FB3EF49095809570956195F4
S1130AC07F4F8F4F9F4F9923A9F0F92F96E9BB27AA
S1130AD09395F695879577956795B795F111F8CF26
S1130AE0FAF4BB0F11F460FF1BC06F5F7F4F8F4F91
S1130AF09F4F16C0882311F096E911C0772321F087
S1130B009EE8872F762F05C0662371F096E8862F1E
S1130B1070E060E02AF09A95660F771F881FDAF775
S1130B20880F9695879597F9089597F99F6780E8B8
S1130B3070E060E008959FEF80EC089500240A942B
S1130B401616170618060906089500240A941216A4
S1130B501306140605060895092E0394000C11F4D7
S1130B60882352F0BB0F40F4BF2B11F460FF04C084
S1130B706F5F7F4F8F4F9F4F089557FD9058440FDD
S1130B80551F59F05F3F71F04795880F97FB991FE8
S1130B9061F09F3F79F087950895121613061406A5
S1130BA0551FF2CF4695F1DF08C016161706180632
S1130BB0991FF1CF86957105610508940895E8940D
S1130BC0BB2766277727CB0197F908950BD0C4CFAD
S1130BD0B5DF28F0BADF18F0952309F0A6CFABCF24
S1130BE01124EECFCADFA0F3959FD1F3950F50E007
S1130BF0551F629FF001729FBB27F00DB11D639FCB
S1130C00AA27F00DB11DAA1F649F6627B00DA11D70
S1130C10661F829F2227B00DA11D621F739FB00D16
S1130C20A11D621F839FA00D611D221F749F332786
S1130C30A00D611D231F849F600D211D822F762F1F
S1130C406A2F11249F5750408AF0E1F088234AF01C
S1130C50EE0FFF1FBB1F661F771F881F9150504068
S1130C60A9F79E3F510570F060CFAACF5F3FECF328
S1130C70983EDCF3869577956795B795F795E79554
S1130C809F5FC1F7FE2B880F911D9695879597F965
S1130C900895FB01DC018D91019080190110D9F3B5
S10B0CA0990B0895F894FFCFAD
S10D0CA844414C450041434553000C
S9030000FC
